{"abi":[{"type":"constructor","inputs":[],"stateMutability":"nonpayable"},{"type":"function","name":"UPGRADE_INTERFACE_VERSION","inputs":[],"outputs":[{"name":"","type":"string","internalType":"string"}],"stateMutability":"view"},{"type":"function","name":"getFlips","inputs":[],"outputs":[{"name":"","type":"uint8[10]","internalType":"uint8[10]"}],"stateMutability":"view"},{"type":"function","name":"initialize","inputs":[{"name":"initialOwner","type":"address","internalType":"address"}],"outputs":[],"stateMutability":"nonpayable"},{"type":"function","name":"owner","inputs":[],"outputs":[{"name":"","type":"address","internalType":"address"}],"stateMutability":"view"},{"type":"function","name":"proxiableUUID","inputs":[],"outputs":[{"name":"","type":"bytes32","internalType":"bytes32"}],"stateMutability":"view"},{"type":"function","name":"renounceOwnership","inputs":[],"outputs":[],"stateMutability":"nonpayable"},{"type":"function","name":"seed","inputs":[],"outputs":[{"name":"","type":"string","internalType":"string"}],"stateMutability":"view"},{"type":"function","name":"seedRotation","inputs":[{"name":"NewSeed","type":"string","internalType":"string"}],"outputs":[],"stateMutability":"nonpayable"},{"type":"function","name":"transferOwnership","inputs":[{"name":"newOwner","type":"address","internalType":"address"}],"outputs":[],"stateMutability":"nonpayable"},{"type":"function","name":"upgradeToAndCall","inputs":[{"name":"newImplementation","type":"address","internalType":"address"},{"name":"data","type":"bytes","internalType":"bytes"}],"outputs":[],"stateMutability":"payable"},{"type":"function","name":"userInput","inputs":[{"name":"Guesses","type":"uint8[10]","internalType":"uint8[10]"}],"outputs":[{"name":"","type":"bool","internalType":"bool"}],"stateMutability":"view"},{"type":"event","name":"Initialized","inputs":[{"name":"version","type":"uint64","indexed":false,"internalType":"uint64"}],"anonymous":false},{"type":"event","name":"OwnershipTransferred","inputs":[{"name":"previousOwner","type":"address","indexed":true,"internalType":"address"},{"name":"newOwner","type":"address","indexed":true,"internalType":"address"}],"anonymous":false},{"type":"event","name":"Upgraded","inputs":[{"name":"implementation","type":"address","indexed":true,"internalType":"address"}],"anonymous":false},{"type":"error","name":"AddressEmptyCode","inputs":[{"name":"target","type":"address","internalType":"address"}]},{"type":"error","name":"ERC1967InvalidImplementation","inputs":[{"name":"implementation","type":"address","internalType":"address"}]},{"type":"error","name":"ERC1967NonPayable","inputs":[]},{"type":"error","name":"FailedInnerCall","inputs":[]},{"type":"error","name":"InvalidInitialization","inputs":[]},{"type":"error","name":"NotInitializing","inputs":[]},{"type":"error","name":"OwnableInvalidOwner","inputs":[{"name":"owner","type":"address","internalType":"address"}]},{"type":"error","name":"OwnableUnauthorizedAccount","inputs":[{"name":"account","type":"address","internalType":"address"}]},{"type":"error","name":"SeedTooShort","inputs":[]},{"type":"error","name":"UUPSUnauthorizedCallContext","inputs":[]},{"type":"error","name":"UUPSUnsupportedProxiableUUID","inputs":[{"name":"slot","type":"bytes32","internalType":"bytes32"}]}],"bytecode":{"object":"0x60a06040523060805234801561001457600080fd5b5061001d610022565b6100d4565b7ff0c57e16840df040f15088dc2f81fe391c3923bec73e23a9662efc9c229c6a00805468010000000000000000900460ff16156100725760405163f92ee8a960e01b815260040160405180910390fd5b80546001600160401b03908116146100d15780546001600160401b0319166001600160401b0390811782556040519081527fc7f505b2f371ae2175ee4913f4499e1f2633a7b5936321eed1cdaeb6115181d29060200160405180910390a15b50565b6080516111776100fd6000396000818161080e01528181610837015261097d01526111776000f3fe60806040526004361061009c5760003560e01c80637d94792a116100645780637d94792a146101355780638da5cb5b14610157578063ad3cb1cc1461019e578063c4d66de8146101cf578063ddabf9b2146101ef578063f2fde38b1461021f57600080fd5b806327236822146100a15780634f1ef286146100c357806352d1902d146100d65780635ff7a0bd146100fe578063715018a614610120575b600080fd5b3480156100ad57600080fd5b506100c16100bc366004610d1b565b61023f565b005b6100c16100d1366004610d88565b610337565b3480156100e257600080fd5b506100eb610356565b6040519081526020015b60405180910390f35b34801561010a57600080fd5b50610113610373565b6040516100f59190610dea565b34801561012c57600080fd5b506100c1610508565b34801561014157600080fd5b5061014a61051c565b6040516100f59190610e43565b34801561016357600080fd5b507f9016d09d72d40fdae2fd8ceac6b6234c7706214fd39c1cd1e609a0528c199300546040516001600160a01b0390911681526020016100f5565b3480156101aa57600080fd5b5061014a604051806040016040528060058152602001640352e302e360dc1b81525081565b3480156101db57600080fd5b506100c16101ea366004610e76565b6105aa565b3480156101fb57600080fd5b5061020f61020a366004610e91565b6106e9565b60405190151581526020016100f5565b34801561022b57600080fd5b506100c161023a366004610e76565b610765565b6102476107a8565b80518190600a81101561026d5760405163cde2a69360e01b815260040160405180910390fd5b60008167ffffffffffffffff81111561028857610288610c8f565b6040519080825280601f01601f1916602001820160405280156102b2576020820181803683370190505b50905060005b828110156103235783836102cd836005610ed2565b6102d79190610efb565b815181106102e7576102e7610f0f565b602001015160f81c60f81b82828151811061030457610304610f0f565b60200101906001600160f81b031916908160001a9053506001016102b8565b5060006103308282610fa7565b5050505050565b61033f610803565b610348826108a8565b61035282826108b0565b5050565b6000610360610972565b506000805160206110eb83398151915290565b61037b610c70565b600080805461038990610f25565b80601f01602080910402602001604051908101604052809291908181526020018280546103b590610f25565b80156104025780601f106103d757610100808354040283529160200191610402565b820191906000526020600020905b8154815290600101906020018083116103e557829003601f168201915b50505050509050600081519050610417610c70565b6000610424600a84611067565b905060005b600a8110156104fe5760008561043f848461107b565b8151811061044f5761044f610f0f565b602001015160f81c60f81b426040516020016104819291906001600160f81b0319929092168252602082015260400190565b60408051601f19818403018152919052805160209091012090506104a6600282610efb565b6000036104d35760018483600a81106104c1576104c1610f0f565b60ff90921660209290920201526104f5565b60008483600a81106104e7576104e7610f0f565b60ff90921660209290920201525b50600101610429565b5090949350505050565b6105106107a8565b61051a60006109bb565b565b6000805461052990610f25565b80601f016020809104026020016040519081016040528092919081815260200182805461055590610f25565b80156105a25780601f10610577576101008083540402835291602001916105a2565b820191906000526020600020905b81548152906001019060200180831161058557829003601f168201915b505050505081565b7ff0c57e16840df040f15088dc2f81fe391c3923bec73e23a9662efc9c229c6a008054600160401b810460ff16159067ffffffffffffffff166000811580156105f05750825b905060008267ffffffffffffffff16600114801561060d5750303b155b90508115801561061b575080155b156106395760405163f92ee8a960e01b815260040160405180910390fd5b845467ffffffffffffffff19166001178555831561066357845460ff60401b1916600160401b1785555b61066c86610a2c565b610674610a3d565b60405180606001604052806037815260200161110b6037913960009061069a9082610fa7565b5083156106e157845460ff60401b19168555604051600181527fc7f505b2f371ae2175ee4913f4499e1f2633a7b5936321eed1cdaeb6115181d29060200160405180910390a15b505050505050565b6000806106f4610373565b905060005b600a81101561075b578181600a811061071457610714610f0f565b602002015160ff168482600a811061072e5761072e610f0f565b6020020160208101906107419190611092565b60ff1614610753575060009392505050565b6001016106f9565b5060019392505050565b61076d6107a8565b6001600160a01b03811661079c57604051631e4fbdf760e01b8152600060048201526024015b60405180910390fd5b6107a5816109bb565b50565b336107da7f9016d09d72d40fdae2fd8ceac6b6234c7706214fd39c1cd1e609a0528c199300546001600160a01b031690565b6001600160a01b03161461051a5760405163118cdaa760e01b8152336004820152602401610793565b306001600160a01b037f000000000000000000000000000000000000000000000000000000000000000016148061088a57507f00000000000000000000000000000000000000000000000000000000000000006001600160a01b031661087e6000805160206110eb833981519152546001600160a01b031690565b6001600160a01b031614155b1561051a5760405163703e46dd60e11b815260040160405180910390fd5b6107a56107a8565b816001600160a01b03166352d1902d6040518163ffffffff1660e01b8152600401602060405180830381865afa92505050801561090a575060408051601f3d908101601f19168201909252610907918101906110b5565b60015b61093257604051634c9c8ce360e01b81526001600160a01b0383166004820152602401610793565b6000805160206110eb833981519152811461096357604051632a87526960e21b815260048101829052602401610793565b61096d8383610a45565b505050565b306001600160a01b037f0000000000000000000000000000000000000000000000000000000000000000161461051a5760405163703e46dd60e11b815260040160405180910390fd5b7f9016d09d72d40fdae2fd8ceac6b6234c7706214fd39c1cd1e609a0528c19930080546001600160a01b031981166001600160a01b03848116918217845560405192169182907f8be0079c531659141344cd1fd0a4f28419497f9722a3daafe3b4186f6b6457e090600090a3505050565b610a34610a9b565b6107a581610ae4565b61051a610a9b565b610a4e82610aec565b6040516001600160a01b038316907fbc7cd75a20ee27fd9adebab32041f755214dbc6bffa90cc0225b39da2e5c2d3b90600090a2805115610a935761096d8282610b51565b610352610bc9565b7ff0c57e16840df040f15088dc2f81fe391c3923bec73e23a9662efc9c229c6a0054600160401b900460ff1661051a57604051631afcd79f60e31b815260040160405180910390fd5b61076d610a9b565b806001600160a01b03163b600003610b2257604051634c9c8ce360e01b81526001600160a01b0382166004820152602401610793565b6000805160206110eb83398151915280546001600160a01b0319166001600160a01b0392909216919091179055565b6060600080846001600160a01b031684604051610b6e91906110ce565b600060405180830381855af49150503d8060008114610ba9576040519150601f19603f3d011682016040523d82523d6000602084013e610bae565b606091505b5091509150610bbe858383610be8565b925050505b92915050565b341561051a5760405163b398979f60e01b815260040160405180910390fd5b606082610bfd57610bf882610c47565b610c40565b8151158015610c1457506001600160a01b0384163b155b15610c3d57604051639996b31560e01b81526001600160a01b0385166004820152602401610793565b50805b9392505050565b805115610c575780518082602001fd5b604051630a12f52160e11b815260040160405180910390fd5b604051806101400160405280600a906020820280368337509192915050565b634e487b7160e01b600052604160045260246000fd5b600067ffffffffffffffff80841115610cc057610cc0610c8f565b604051601f8501601f19908116603f01168101908282118183101715610ce857610ce8610c8f565b81604052809350858152868686011115610d0157600080fd5b858560208301376000602087830101525050509392505050565b600060208284031215610d2d57600080fd5b813567ffffffffffffffff811115610d4457600080fd5b8201601f81018413610d5557600080fd5b610d6484823560208401610ca5565b949350505050565b80356001600160a01b0381168114610d8357600080fd5b919050565b60008060408385031215610d9b57600080fd5b610da483610d6c565b9150602083013567ffffffffffffffff811115610dc057600080fd5b8301601f81018513610dd157600080fd5b610de085823560208401610ca5565b9150509250929050565b6101408101818360005b600a811015610e1657815160ff16835260209283019290910190600101610df4565b50505092915050565b60005b83811015610e3a578181015183820152602001610e22565b50506000910152565b6020815260008251806020840152610e62816040850160208701610e1f565b601f01601f19169190910160400192915050565b600060208284031215610e8857600080fd5b610c4082610d6c565b6000610140808385031215610ea557600080fd5b838184011115610eb457600080fd5b509092915050565b634e487b7160e01b600052601160045260246000fd5b80820180821115610bc357610bc3610ebc565b634e487b7160e01b600052601260045260246000fd5b600082610f0a57610f0a610ee5565b500690565b634e487b7160e01b600052603260045260246000fd5b600181811c90821680610f3957607f821691505b602082108103610f5957634e487b7160e01b600052602260045260246000fd5b50919050565b601f82111561096d576000816000526020600020601f850160051c81016020861015610f885750805b601f850160051c820191505b818110156106e157828155600101610f94565b815167ffffffffffffffff811115610fc157610fc1610c8f565b610fd581610fcf8454610f25565b84610f5f565b602080601f83116001811461100a5760008415610ff25750858301515b600019600386901b1c1916600185901b1785556106e1565b600085815260208120601f198616915b828110156110395788860151825594840194600190910190840161101a565b50858210156110575787850151600019600388901b60f8161c191681555b5050505050600190811b01905550565b60008261107657611076610ee5565b500490565b8082028115828204841417610bc357610bc3610ebc565b6000602082840312156110a457600080fd5b813560ff81168114610c4057600080fd5b6000602082840312156110c757600080fd5b5051919050565b600082516110e0818460208701610e1f565b919091019291505056fe360894a13ba1a3210667c828492db98dca3e2076cc3735a920a3ca505d382bbc4974206973206120676f6f6420707261637469636520746f20726f74617465207365656473206f6674656e20696e2067616d626c696e67a26469706673582212202e3d83c0d350c607fe37675d6ee7c9b2d83a16463d0d551a49decab7c7aada1364736f6c63430008180033","linkReferences":{}},"methodIdentifiers":{"UPGRADE_INTERFACE_VERSION()":"ad3cb1cc","getFlips()":"5ff7a0bd","initialize(address)":"c4d66de8","owner()":"8da5cb5b","proxiableUUID()":"52d1902d","renounceOwnership()":"715018a6","seed()":"7d94792a","seedRotation(string)":"27236822","transferOwnership(address)":"f2fde38b","upgradeToAndCall(address,bytes)":"4f1ef286","userInput(uint8[10])":"ddabf9b2"},"id":34}