{"abi":[{"type":"constructor","inputs":[],"stateMutability":"nonpayable"},{"type":"function","name":"UPGRADE_INTERFACE_VERSION","inputs":[],"outputs":[{"name":"","type":"string","internalType":"string"}],"stateMutability":"view"},{"type":"function","name":"getFlips","inputs":[],"outputs":[{"name":"","type":"uint8[10]","internalType":"uint8[10]"}],"stateMutability":"view"},{"type":"function","name":"initialize","inputs":[{"name":"initialOwner","type":"address","internalType":"address"}],"outputs":[],"stateMutability":"nonpayable"},{"type":"function","name":"owner","inputs":[],"outputs":[{"name":"","type":"address","internalType":"address"}],"stateMutability":"view"},{"type":"function","name":"proxiableUUID","inputs":[],"outputs":[{"name":"","type":"bytes32","internalType":"bytes32"}],"stateMutability":"view"},{"type":"function","name":"renounceOwnership","inputs":[],"outputs":[],"stateMutability":"nonpayable"},{"type":"function","name":"seed","inputs":[],"outputs":[{"name":"","type":"string","internalType":"string"}],"stateMutability":"view"},{"type":"function","name":"seedRotation","inputs":[{"name":"NewSeed","type":"string","internalType":"string"}],"outputs":[],"stateMutability":"nonpayable"},{"type":"function","name":"transferOwnership","inputs":[{"name":"newOwner","type":"address","internalType":"address"}],"outputs":[],"stateMutability":"nonpayable"},{"type":"function","name":"upgradeToAndCall","inputs":[{"name":"newImplementation","type":"address","internalType":"address"},{"name":"data","type":"bytes","internalType":"bytes"}],"outputs":[],"stateMutability":"payable"},{"type":"function","name":"userInput","inputs":[{"name":"Guesses","type":"uint8[10]","internalType":"uint8[10]"}],"outputs":[{"name":"","type":"bool","internalType":"bool"}],"stateMutability":"view"},{"type":"event","name":"Initialized","inputs":[{"name":"version","type":"uint64","indexed":false,"internalType":"uint64"}],"anonymous":false},{"type":"event","name":"OwnershipTransferred","inputs":[{"name":"previousOwner","type":"address","indexed":true,"internalType":"address"},{"name":"newOwner","type":"address","indexed":true,"internalType":"address"}],"anonymous":false},{"type":"event","name":"Upgraded","inputs":[{"name":"implementation","type":"address","indexed":true,"internalType":"address"}],"anonymous":false},{"type":"error","name":"AddressEmptyCode","inputs":[{"name":"target","type":"address","internalType":"address"}]},{"type":"error","name":"ERC1967InvalidImplementation","inputs":[{"name":"implementation","type":"address","internalType":"address"}]},{"type":"error","name":"ERC1967NonPayable","inputs":[]},{"type":"error","name":"FailedInnerCall","inputs":[]},{"type":"error","name":"InvalidInitialization","inputs":[]},{"type":"error","name":"NotInitializing","inputs":[]},{"type":"error","name":"OwnableInvalidOwner","inputs":[{"name":"owner","type":"address","internalType":"address"}]},{"type":"error","name":"OwnableUnauthorizedAccount","inputs":[{"name":"account","type":"address","internalType":"address"}]},{"type":"error","name":"SeedTooShort","inputs":[]},{"type":"error","name":"UUPSUnauthorizedCallContext","inputs":[]},{"type":"error","name":"UUPSUnsupportedProxiableUUID","inputs":[{"name":"slot","type":"bytes32","internalType":"bytes32"}]}],"bytecode":{"object":"0x60a06040523060805234801561001457600080fd5b5061001d610022565b6100d4565b7ff0c57e16840df040f15088dc2f81fe391c3923bec73e23a9662efc9c229c6a00805468010000000000000000900460ff16156100725760405163f92ee8a960e01b815260040160405180910390fd5b80546001600160401b03908116146100d15780546001600160401b0319166001600160401b0390811782556040519081527fc7f505b2f371ae2175ee4913f4499e1f2633a7b5936321eed1cdaeb6115181d29060200160405180910390a15b50565b6080516110a46100fd600039600081816107560152818161077f01526108c501526110a46000f3fe60806040526004361061009c5760003560e01c80637d94792a116100645780637d94792a146101355780638da5cb5b14610157578063ad3cb1cc1461019e578063c4d66de8146101cf578063ddabf9b2146101ef578063f2fde38b1461021f57600080fd5b806327236822146100a15780634f1ef286146100c357806352d1902d146100d65780635ff7a0bd146100fe578063715018a614610120575b600080fd5b3480156100ad57600080fd5b506100c16100bc366004610c63565b61023f565b005b6100c16100d1366004610cd0565b61027f565b3480156100e257600080fd5b506100eb61029e565b6040519081526020015b60405180910390f35b34801561010a57600080fd5b506101136102bb565b6040516100f59190610d32565b34801561012c57600080fd5b506100c1610450565b34801561014157600080fd5b5061014a610464565b6040516100f59190610d8b565b34801561016357600080fd5b507f9016d09d72d40fdae2fd8ceac6b6234c7706214fd39c1cd1e609a0528c199300546040516001600160a01b0390911681526020016100f5565b3480156101aa57600080fd5b5061014a604051806040016040528060058152602001640352e302e360dc1b81525081565b3480156101db57600080fd5b506100c16101ea366004610dbe565b6104f2565b3480156101fb57600080fd5b5061020f61020a366004610dd9565b610631565b60405190151581526020016100f5565b34801561022b57600080fd5b506100c161023a366004610dbe565b6106ad565b6102476106f0565b80518190600a81101561026d5760405163cde2a69360e01b815260040160405180910390fd5b60006102798482610e86565b50505050565b61028761074b565b610290826107f0565b61029a82826107f8565b5050565b60006102a86108ba565b5060008051602061101883398151915290565b6102c3610bb8565b60008080546102d190610e04565b80601f01602080910402602001604051908101604052809291908181526020018280546102fd90610e04565b801561034a5780601f1061031f5761010080835404028352916020019161034a565b820191906000526020600020905b81548152906001019060200180831161032d57829003601f168201915b5050505050905060008151905061035f610bb8565b600061036c600a84610f5c565b905060005b600a811015610446576000856103878484610f70565b8151811061039757610397610f95565b602001015160f81c60f81b426040516020016103c99291906001600160f81b0319929092168252602082015260400190565b60408051601f19818403018152919052805160209091012090506103ee600282610fab565b60000361041b5760018483600a811061040957610409610f95565b60ff909216602092909202015261043d565b60008483600a811061042f5761042f610f95565b60ff90921660209290920201525b50600101610371565b5090949350505050565b6104586106f0565b6104626000610903565b565b6000805461047190610e04565b80601f016020809104026020016040519081016040528092919081815260200182805461049d90610e04565b80156104ea5780601f106104bf576101008083540402835291602001916104ea565b820191906000526020600020905b8154815290600101906020018083116104cd57829003601f168201915b505050505081565b7ff0c57e16840df040f15088dc2f81fe391c3923bec73e23a9662efc9c229c6a008054600160401b810460ff16159067ffffffffffffffff166000811580156105385750825b905060008267ffffffffffffffff1660011480156105555750303b155b905081158015610563575080155b156105815760405163f92ee8a960e01b815260040160405180910390fd5b845467ffffffffffffffff1916600117855583156105ab57845460ff60401b1916600160401b1785555b6105b486610974565b6105bc610985565b604051806060016040528060378152602001611038603791396000906105e29082610e86565b50831561062957845460ff60401b19168555604051600181527fc7f505b2f371ae2175ee4913f4499e1f2633a7b5936321eed1cdaeb6115181d29060200160405180910390a15b505050505050565b60008061063c6102bb565b905060005b600a8110156106a3578181600a811061065c5761065c610f95565b602002015160ff168482600a811061067657610676610f95565b6020020160208101906106899190610fbf565b60ff161461069b575060009392505050565b600101610641565b5060019392505050565b6106b56106f0565b6001600160a01b0381166106e457604051631e4fbdf760e01b8152600060048201526024015b60405180910390fd5b6106ed81610903565b50565b336107227f9016d09d72d40fdae2fd8ceac6b6234c7706214fd39c1cd1e609a0528c199300546001600160a01b031690565b6001600160a01b0316146104625760405163118cdaa760e01b81523360048201526024016106db565b306001600160a01b037f00000000000000000000000000000000000000000000000000000000000000001614806107d257507f00000000000000000000000000000000000000000000000000000000000000006001600160a01b03166107c6600080516020611018833981519152546001600160a01b031690565b6001600160a01b031614155b156104625760405163703e46dd60e11b815260040160405180910390fd5b6106ed6106f0565b816001600160a01b03166352d1902d6040518163ffffffff1660e01b8152600401602060405180830381865afa925050508015610852575060408051601f3d908101601f1916820190925261084f91810190610fe2565b60015b61087a57604051634c9c8ce360e01b81526001600160a01b03831660048201526024016106db565b60008051602061101883398151915281146108ab57604051632a87526960e21b8152600481018290526024016106db565b6108b5838361098d565b505050565b306001600160a01b037f000000000000000000000000000000000000000000000000000000000000000016146104625760405163703e46dd60e11b815260040160405180910390fd5b7f9016d09d72d40fdae2fd8ceac6b6234c7706214fd39c1cd1e609a0528c19930080546001600160a01b031981166001600160a01b03848116918217845560405192169182907f8be0079c531659141344cd1fd0a4f28419497f9722a3daafe3b4186f6b6457e090600090a3505050565b61097c6109e3565b6106ed81610a2c565b6104626109e3565b61099682610a34565b6040516001600160a01b038316907fbc7cd75a20ee27fd9adebab32041f755214dbc6bffa90cc0225b39da2e5c2d3b90600090a28051156109db576108b58282610a99565b61029a610b11565b7ff0c57e16840df040f15088dc2f81fe391c3923bec73e23a9662efc9c229c6a0054600160401b900460ff1661046257604051631afcd79f60e31b815260040160405180910390fd5b6106b56109e3565b806001600160a01b03163b600003610a6a57604051634c9c8ce360e01b81526001600160a01b03821660048201526024016106db565b60008051602061101883398151915280546001600160a01b0319166001600160a01b0392909216919091179055565b6060600080846001600160a01b031684604051610ab69190610ffb565b600060405180830381855af49150503d8060008114610af1576040519150601f19603f3d011682016040523d82523d6000602084013e610af6565b606091505b5091509150610b06858383610b30565b925050505b92915050565b34156104625760405163b398979f60e01b815260040160405180910390fd5b606082610b4557610b4082610b8f565b610b88565b8151158015610b5c57506001600160a01b0384163b155b15610b8557604051639996b31560e01b81526001600160a01b03851660048201526024016106db565b50805b9392505050565b805115610b9f5780518082602001fd5b604051630a12f52160e11b815260040160405180910390fd5b604051806101400160405280600a906020820280368337509192915050565b634e487b7160e01b600052604160045260246000fd5b600067ffffffffffffffff80841115610c0857610c08610bd7565b604051601f8501601f19908116603f01168101908282118183101715610c3057610c30610bd7565b81604052809350858152868686011115610c4957600080fd5b858560208301376000602087830101525050509392505050565b600060208284031215610c7557600080fd5b813567ffffffffffffffff811115610c8c57600080fd5b8201601f81018413610c9d57600080fd5b610cac84823560208401610bed565b949350505050565b80356001600160a01b0381168114610ccb57600080fd5b919050565b60008060408385031215610ce357600080fd5b610cec83610cb4565b9150602083013567ffffffffffffffff811115610d0857600080fd5b8301601f81018513610d1957600080fd5b610d2885823560208401610bed565b9150509250929050565b6101408101818360005b600a811015610d5e57815160ff16835260209283019290910190600101610d3c565b50505092915050565b60005b83811015610d82578181015183820152602001610d6a565b50506000910152565b6020815260008251806020840152610daa816040850160208701610d67565b601f01601f19169190910160400192915050565b600060208284031215610dd057600080fd5b610b8882610cb4565b6000610140808385031215610ded57600080fd5b838184011115610dfc57600080fd5b509092915050565b600181811c90821680610e1857607f821691505b602082108103610e3857634e487b7160e01b600052602260045260246000fd5b50919050565b601f8211156108b5576000816000526020600020601f850160051c81016020861015610e675750805b601f850160051c820191505b8181101561062957828155600101610e73565b815167ffffffffffffffff811115610ea057610ea0610bd7565b610eb481610eae8454610e04565b84610e3e565b602080601f831160018114610ee95760008415610ed15750858301515b600019600386901b1c1916600185901b178555610629565b600085815260208120601f198616915b82811015610f1857888601518255948401946001909101908401610ef9565b5085821015610f365787850151600019600388901b60f8161c191681555b5050505050600190811b01905550565b634e487b7160e01b600052601260045260246000fd5b600082610f6b57610f6b610f46565b500490565b8082028115828204841417610b0b57634e487b7160e01b600052601160045260246000fd5b634e487b7160e01b600052603260045260246000fd5b600082610fba57610fba610f46565b500690565b600060208284031215610fd157600080fd5b813560ff81168114610b8857600080fd5b600060208284031215610ff457600080fd5b5051919050565b6000825161100d818460208701610d67565b919091019291505056fe360894a13ba1a3210667c828492db98dca3e2076cc3735a920a3ca505d382bbc4974206973206120676f6f6420707261637469636520746f20726f74617465207365656473206f6674656e20696e2067616d626c696e67a2646970667358221220cca72f32ed796093cf4c65214e0a41aee00111ae0a8c7c3493e55306302d1d1f64736f6c63430008180033","linkReferences":{}},"methodIdentifiers":{"UPGRADE_INTERFACE_VERSION()":"ad3cb1cc","getFlips()":"5ff7a0bd","initialize(address)":"c4d66de8","owner()":"8da5cb5b","proxiableUUID()":"52d1902d","renounceOwnership()":"715018a6","seed()":"7d94792a","seedRotation(string)":"27236822","transferOwnership(address)":"f2fde38b","upgradeToAndCall(address,bytes)":"4f1ef286","userInput(uint8[10])":"ddabf9b2"},"id":33}