{"abi":[{"type":"function","name":"eip712Domain","inputs":[],"outputs":[{"name":"fields","type":"bytes1","internalType":"bytes1"},{"name":"name","type":"string","internalType":"string"},{"name":"version","type":"string","internalType":"string"},{"name":"chainId","type":"uint256","internalType":"uint256"},{"name":"verifyingContract","type":"address","internalType":"address"},{"name":"salt","type":"bytes32","internalType":"bytes32"},{"name":"extensions","type":"uint256[]","internalType":"uint256[]"}],"stateMutability":"view"},{"type":"function","name":"execute","inputs":[{"name":"request","type":"tuple","internalType":"struct ERC2771ForwarderUpgradeable.ForwardRequestData","components":[{"name":"from","type":"address","internalType":"address"},{"name":"to","type":"address","internalType":"address"},{"name":"value","type":"uint256","internalType":"uint256"},{"name":"gas","type":"uint256","internalType":"uint256"},{"name":"deadline","type":"uint48","internalType":"uint48"},{"name":"data","type":"bytes","internalType":"bytes"},{"name":"signature","type":"bytes","internalType":"bytes"}]}],"outputs":[],"stateMutability":"payable"},{"type":"function","name":"executeBatch","inputs":[{"name":"requests","type":"tuple[]","internalType":"struct ERC2771ForwarderUpgradeable.ForwardRequestData[]","components":[{"name":"from","type":"address","internalType":"address"},{"name":"to","type":"address","internalType":"address"},{"name":"value","type":"uint256","internalType":"uint256"},{"name":"gas","type":"uint256","internalType":"uint256"},{"name":"deadline","type":"uint48","internalType":"uint48"},{"name":"data","type":"bytes","internalType":"bytes"},{"name":"signature","type":"bytes","internalType":"bytes"}]},{"name":"refundReceiver","type":"address","internalType":"address payable"}],"outputs":[],"stateMutability":"payable"},{"type":"function","name":"nonces","inputs":[{"name":"owner","type":"address","internalType":"address"}],"outputs":[{"name":"","type":"uint256","internalType":"uint256"}],"stateMutability":"view"},{"type":"function","name":"verify","inputs":[{"name":"request","type":"tuple","internalType":"struct ERC2771ForwarderUpgradeable.ForwardRequestData","components":[{"name":"from","type":"address","internalType":"address"},{"name":"to","type":"address","internalType":"address"},{"name":"value","type":"uint256","internalType":"uint256"},{"name":"gas","type":"uint256","internalType":"uint256"},{"name":"deadline","type":"uint48","internalType":"uint48"},{"name":"data","type":"bytes","internalType":"bytes"},{"name":"signature","type":"bytes","internalType":"bytes"}]}],"outputs":[{"name":"","type":"bool","internalType":"bool"}],"stateMutability":"view"},{"type":"event","name":"EIP712DomainChanged","inputs":[],"anonymous":false},{"type":"event","name":"ExecutedForwardRequest","inputs":[{"name":"signer","type":"address","indexed":true,"internalType":"address"},{"name":"nonce","type":"uint256","indexed":false,"internalType":"uint256"},{"name":"success","type":"bool","indexed":false,"internalType":"bool"}],"anonymous":false},{"type":"event","name":"Initialized","inputs":[{"name":"version","type":"uint64","indexed":false,"internalType":"uint64"}],"anonymous":false},{"type":"error","name":"AddressInsufficientBalance","inputs":[{"name":"account","type":"address","internalType":"address"}]},{"type":"error","name":"ERC2771ForwarderExpiredRequest","inputs":[{"name":"deadline","type":"uint48","internalType":"uint48"}]},{"type":"error","name":"ERC2771ForwarderInvalidSigner","inputs":[{"name":"signer","type":"address","internalType":"address"},{"name":"from","type":"address","internalType":"address"}]},{"type":"error","name":"ERC2771ForwarderMismatchedValue","inputs":[{"name":"requestedValue","type":"uint256","internalType":"uint256"},{"name":"msgValue","type":"uint256","internalType":"uint256"}]},{"type":"error","name":"ERC2771UntrustfulTarget","inputs":[{"name":"target","type":"address","internalType":"address"},{"name":"forwarder","type":"address","internalType":"address"}]},{"type":"error","name":"FailedInnerCall","inputs":[]},{"type":"error","name":"InvalidAccountNonce","inputs":[{"name":"account","type":"address","internalType":"address"},{"name":"currentNonce","type":"uint256","internalType":"uint256"}]},{"type":"error","name":"InvalidInitialization","inputs":[]},{"type":"error","name":"NotInitializing","inputs":[]}],"bytecode":{"object":"0x608060405234801561001057600080fd5b50610fce806100206000396000f3fe60806040526004361061004a5760003560e01c806319d8d38c1461004f5780637ecebe001461008457806384b0196e146100e7578063ccf96b4a1461010f578063df905caf14610124575b600080fd5b34801561005b57600080fd5b5061006f61006a366004610c2a565b610137565b60405190151581526020015b60405180910390f35b34801561009057600080fd5b506100d961009f366004610c81565b6001600160a01b031660009081527f5ab42ced628888259c08ac98db1eb0cf702fc1501344311d8b100cd1bfe4bb00602052604090205490565b60405190815260200161007b565b3480156100f357600080fd5b506100fc610169565b60405161007b9796959493929190610ce4565b61012261011d366004610d7d565b61021a565b005b610122610132366004610c2a565b61031c565b60008060008061014685610377565b509250925092508280156101575750815b80156101605750805b95945050505050565b60006060808280808381600080516020610f79833981519152805490915015801561019657506001810154155b6101df5760405162461bcd60e51b81526020600482015260156024820152741152540dcc4c8e88155b9a5b9a5d1a585b1a5e9959605a1b60448201526064015b60405180910390fd5b6101e76103fc565b6101ef6104bf565b60408051600080825260208201909252600f60f81b9c939b5091995046985030975095509350915050565b6001600160a01b03811615600080805b858110156102da5786868281811061024457610244610e03565b90506020028101906102569190610e19565b610264906040013584610e39565b9250600061029588888481811061027d5761027d610e03565b905060200281019061028f9190610e19565b866104fe565b9050806102d1578787838181106102ae576102ae610e03565b90506020028101906102c09190610e19565b6102ce906040013584610e39565b92505b5060010161022a565b50348214610304576040516370647f7960e01b8152600481018390523460248201526044016101d6565b8015610314576103148482610700565b505050505050565b8060400135341461034c57604080516370647f7960e01b81529082013560048201523460248201526044016101d6565b6103578160016104fe565b61037457604051630a12f52160e11b815260040160405180910390fd5b50565b6000806000806000806103898761079c565b90925090506103a66103a16040890160208a01610c81565b610911565b426103b760a08a0160808b01610e5a565b65ffffffffffff1610158380156103eb57506103d660208a018a610c81565b6001600160a01b0316836001600160a01b0316145b919750955093509150509193509193565b7fa16a46d94261c7517cc8ff89f61c0ce93598e3c849801011dee649a6a557d1028054606091600080516020610f798339815191529161043b90610e82565b80601f016020809104026020016040519081016040528092919081815260200182805461046790610e82565b80156104b45780601f10610489576101008083540402835291602001916104b4565b820191906000526020600020905b81548152906001019060200180831161049757829003601f168201915b505050505091505090565b7fa16a46d94261c7517cc8ff89f61c0ce93598e3c849801011dee649a6a557d1038054606091600080516020610f798339815191529161043b90610e82565b600080600080600061050f87610377565b935093509350935085156105d5578361055d576105326040880160208901610c81565b60405163d2650cd160e01b81526001600160a01b0390911660048201523060248201526044016101d6565b826105965761057260a0880160808901610e5a565b604051634a777ac560e11b815265ffffffffffff90911660048201526024016101d6565b816105d557806105a96020890189610c81565b604051636422d02b60e11b81526001600160a01b039283166004820152911660248201526044016101d6565b8380156105df5750815b80156105e85750825b156106f6576001600160a01b03811660009081527f5ab42ced628888259c08ac98db1eb0cf702fc1501344311d8b100cd1bfe4bb006020526040812080546001810190915590506060880135600061064660408b0160208c01610c81565b905060408a0135600061065c60a08d018d610ebc565b61066960208f018f610c81565b60405160200161067b93929190610f0a565b6040516020818303038152906040529050600080600083516020850186888af19a505a90506106aa818e61098e565b604080518781528c151560208201526001600160a01b038916917f842fb24a83793558587a3dab2be7674da4a51d09c5542d6dd354e5d0ea70813c910160405180910390a25050505050505b5050505092915050565b804710156107235760405163cd78605960e01b81523060048201526024016101d6565b6000826001600160a01b03168260405160006040518083038185875af1925050503d8060008114610770576040519150601f19603f3d011682016040523d82523d6000602084013e610775565b606091505b505090508061079757604051630a12f52160e11b815260040160405180910390fd5b505050565b60008080806108eb6107b160c0870187610ebc565b8080601f0160208091040260200160405190810160405280939291908181526020018383808284376000920191909152506108e592507f7f96328b83274ebc7c1cf4f7a3abda602b51a78b7fa1d86a2ce353d75e587cac9150610819905060208a018a610c81565b61082960408b0160208c01610c81565b60408b013560608c013561084361009f60208f018f610c81565b8d60800160208101906108569190610e5a565b8e8060a001906108669190610ebc565b604051610874929190610f30565b6040805191829003822060208301999099526001600160a01b0397881690820152959094166060860152608085019290925260a084015260c083015265ffffffffffff1660e082015261010081019190915261012001604051602081830303815290604052805190602001206109aa565b906109dd565b509092509050600081600381111561090557610905610f40565b14959194509092505050565b604051306024820152600090819060440160408051601f19818403018152919052602080820180516001600160e01b031663572b6c0560e01b17815282519293506000928392839290918391895afa92503d91506000519050828015610978575060208210155b80156109845750600081115b9695505050505050565b61099d603f6060830135610f56565b8210156109a657fe5b5050565b60006109d76109b7610a2a565b8360405161190160f01b8152600281019290925260228201526042902090565b92915050565b60008060008351604103610a175760208401516040850151606086015160001a610a0988828585610a39565b955095509550505050610a23565b50508151600091506002905b9250925092565b6000610a34610b08565b905090565b600080807f7fffffffffffffffffffffffffffffff5d576e7357a4501ddfe92f46681b20a0841115610a745750600091506003905082610afe565b604080516000808252602082018084528a905260ff891692820192909252606081018790526080810186905260019060a0016020604051602081039080840390855afa158015610ac8573d6000803e3d6000fd5b5050604051601f1901519150506001600160a01b038116610af457506000925060019150829050610afe565b9250600091508190505b9450945094915050565b60007f8b73c3c69bb8fe3d512ecc4cf759cc79239f7b179b0ffacaa9a75d522b39400f610b33610b7c565b610b3b610be6565b60408051602081019490945283019190915260608201524660808201523060a082015260c00160405160208183030381529060405280519060200120905090565b6000600080516020610f7983398151915281610b966103fc565b805190915015610bae57805160209091012092915050565b81548015610bbd579392505050565b7fc5d2460186f7233c927e7db2dcc703c0e500b653ca82273b7bfad8045d85a470935050505090565b6000600080516020610f7983398151915281610c006104bf565b805190915015610c1857805160209091012092915050565b60018201548015610bbd579392505050565b600060208284031215610c3c57600080fd5b813567ffffffffffffffff811115610c5357600080fd5b820160e08185031215610c6557600080fd5b9392505050565b6001600160a01b038116811461037457600080fd5b600060208284031215610c9357600080fd5b8135610c6581610c6c565b6000815180845260005b81811015610cc457602081850181015186830182015201610ca8565b506000602082860101526020601f19601f83011685010191505092915050565b60ff60f81b881681526000602060e06020840152610d0560e084018a610c9e565b8381036040850152610d17818a610c9e565b606085018990526001600160a01b038816608086015260a0850187905284810360c08601528551808252602080880193509091019060005b81811015610d6b57835183529284019291840191600101610d4f565b50909c9b505050505050505050505050565b600080600060408486031215610d9257600080fd5b833567ffffffffffffffff80821115610daa57600080fd5b818601915086601f830112610dbe57600080fd5b813581811115610dcd57600080fd5b8760208260051b8501011115610de257600080fd5b60209283019550935050840135610df881610c6c565b809150509250925092565b634e487b7160e01b600052603260045260246000fd5b6000823560de19833603018112610e2f57600080fd5b9190910192915050565b808201808211156109d757634e487b7160e01b600052601160045260246000fd5b600060208284031215610e6c57600080fd5b813565ffffffffffff81168114610c6557600080fd5b600181811c90821680610e9657607f821691505b602082108103610eb657634e487b7160e01b600052602260045260246000fd5b50919050565b6000808335601e19843603018112610ed357600080fd5b83018035915067ffffffffffffffff821115610eee57600080fd5b602001915036819003821315610f0357600080fd5b9250929050565b8284823760609190911b6bffffffffffffffffffffffff19169101908152601401919050565b8183823760009101908152919050565b634e487b7160e01b600052602160045260246000fd5b600082610f7357634e487b7160e01b600052601260045260246000fd5b50049056fea16a46d94261c7517cc8ff89f61c0ce93598e3c849801011dee649a6a557d100a26469706673582212200acdea4ff8b81b70df86d7472beba091d5d56c474668180ff82ac7ce981d553664736f6c63430008180033","linkReferences":{}},"methodIdentifiers":{"eip712Domain()":"84b0196e","execute((address,address,uint256,uint256,uint48,bytes,bytes))":"df905caf","executeBatch((address,address,uint256,uint256,uint48,bytes,bytes)[],address)":"ccf96b4a","nonces(address)":"7ecebe00","verify((address,address,uint256,uint256,uint48,bytes,bytes))":"19d8d38c"},"id":103}