{"abi":[{"type":"function","name":"ADMIN_ROLE","inputs":[],"outputs":[{"name":"","type":"uint64","internalType":"uint64"}],"stateMutability":"view"},{"type":"function","name":"PUBLIC_ROLE","inputs":[],"outputs":[{"name":"","type":"uint64","internalType":"uint64"}],"stateMutability":"view"},{"type":"function","name":"canCall","inputs":[{"name":"caller","type":"address","internalType":"address"},{"name":"target","type":"address","internalType":"address"},{"name":"selector","type":"bytes4","internalType":"bytes4"}],"outputs":[{"name":"immediate","type":"bool","internalType":"bool"},{"name":"delay","type":"uint32","internalType":"uint32"}],"stateMutability":"view"},{"type":"function","name":"cancel","inputs":[{"name":"caller","type":"address","internalType":"address"},{"name":"target","type":"address","internalType":"address"},{"name":"data","type":"bytes","internalType":"bytes"}],"outputs":[{"name":"","type":"uint32","internalType":"uint32"}],"stateMutability":"nonpayable"},{"type":"function","name":"consumeScheduledOp","inputs":[{"name":"caller","type":"address","internalType":"address"},{"name":"data","type":"bytes","internalType":"bytes"}],"outputs":[],"stateMutability":"nonpayable"},{"type":"function","name":"execute","inputs":[{"name":"target","type":"address","internalType":"address"},{"name":"data","type":"bytes","internalType":"bytes"}],"outputs":[{"name":"","type":"uint32","internalType":"uint32"}],"stateMutability":"payable"},{"type":"function","name":"expiration","inputs":[],"outputs":[{"name":"","type":"uint32","internalType":"uint32"}],"stateMutability":"view"},{"type":"function","name":"getAccess","inputs":[{"name":"roleId","type":"uint64","internalType":"uint64"},{"name":"account","type":"address","internalType":"address"}],"outputs":[{"name":"since","type":"uint48","internalType":"uint48"},{"name":"currentDelay","type":"uint32","internalType":"uint32"},{"name":"pendingDelay","type":"uint32","internalType":"uint32"},{"name":"effect","type":"uint48","internalType":"uint48"}],"stateMutability":"view"},{"type":"function","name":"getNonce","inputs":[{"name":"id","type":"bytes32","internalType":"bytes32"}],"outputs":[{"name":"","type":"uint32","internalType":"uint32"}],"stateMutability":"view"},{"type":"function","name":"getRoleAdmin","inputs":[{"name":"roleId","type":"uint64","internalType":"uint64"}],"outputs":[{"name":"","type":"uint64","internalType":"uint64"}],"stateMutability":"view"},{"type":"function","name":"getRoleGrantDelay","inputs":[{"name":"roleId","type":"uint64","internalType":"uint64"}],"outputs":[{"name":"","type":"uint32","internalType":"uint32"}],"stateMutability":"view"},{"type":"function","name":"getRoleGuardian","inputs":[{"name":"roleId","type":"uint64","internalType":"uint64"}],"outputs":[{"name":"","type":"uint64","internalType":"uint64"}],"stateMutability":"view"},{"type":"function","name":"getSchedule","inputs":[{"name":"id","type":"bytes32","internalType":"bytes32"}],"outputs":[{"name":"","type":"uint48","internalType":"uint48"}],"stateMutability":"view"},{"type":"function","name":"getTargetAdminDelay","inputs":[{"name":"target","type":"address","internalType":"address"}],"outputs":[{"name":"","type":"uint32","internalType":"uint32"}],"stateMutability":"view"},{"type":"function","name":"getTargetFunctionRole","inputs":[{"name":"target","type":"address","internalType":"address"},{"name":"selector","type":"bytes4","internalType":"bytes4"}],"outputs":[{"name":"","type":"uint64","internalType":"uint64"}],"stateMutability":"view"},{"type":"function","name":"grantRole","inputs":[{"name":"roleId","type":"uint64","internalType":"uint64"},{"name":"account","type":"address","internalType":"address"},{"name":"executionDelay","type":"uint32","internalType":"uint32"}],"outputs":[],"stateMutability":"nonpayable"},{"type":"function","name":"hasRole","inputs":[{"name":"roleId","type":"uint64","internalType":"uint64"},{"name":"account","type":"address","internalType":"address"}],"outputs":[{"name":"isMember","type":"bool","internalType":"bool"},{"name":"executionDelay","type":"uint32","internalType":"uint32"}],"stateMutability":"view"},{"type":"function","name":"hashOperation","inputs":[{"name":"caller","type":"address","internalType":"address"},{"name":"target","type":"address","internalType":"address"},{"name":"data","type":"bytes","internalType":"bytes"}],"outputs":[{"name":"","type":"bytes32","internalType":"bytes32"}],"stateMutability":"view"},{"type":"function","name":"isTargetClosed","inputs":[{"name":"target","type":"address","internalType":"address"}],"outputs":[{"name":"","type":"bool","internalType":"bool"}],"stateMutability":"view"},{"type":"function","name":"labelRole","inputs":[{"name":"roleId","type":"uint64","internalType":"uint64"},{"name":"label","type":"string","internalType":"string"}],"outputs":[],"stateMutability":"nonpayable"},{"type":"function","name":"minSetback","inputs":[],"outputs":[{"name":"","type":"uint32","internalType":"uint32"}],"stateMutability":"view"},{"type":"function","name":"multicall","inputs":[{"name":"data","type":"bytes[]","internalType":"bytes[]"}],"outputs":[{"name":"results","type":"bytes[]","internalType":"bytes[]"}],"stateMutability":"nonpayable"},{"type":"function","name":"renounceRole","inputs":[{"name":"roleId","type":"uint64","internalType":"uint64"},{"name":"callerConfirmation","type":"address","internalType":"address"}],"outputs":[],"stateMutability":"nonpayable"},{"type":"function","name":"revokeRole","inputs":[{"name":"roleId","type":"uint64","internalType":"uint64"},{"name":"account","type":"address","internalType":"address"}],"outputs":[],"stateMutability":"nonpayable"},{"type":"function","name":"schedule","inputs":[{"name":"target","type":"address","internalType":"address"},{"name":"data","type":"bytes","internalType":"bytes"},{"name":"when","type":"uint48","internalType":"uint48"}],"outputs":[{"name":"operationId","type":"bytes32","internalType":"bytes32"},{"name":"nonce","type":"uint32","internalType":"uint32"}],"stateMutability":"nonpayable"},{"type":"function","name":"setGrantDelay","inputs":[{"name":"roleId","type":"uint64","internalType":"uint64"},{"name":"newDelay","type":"uint32","internalType":"uint32"}],"outputs":[],"stateMutability":"nonpayable"},{"type":"function","name":"setRoleAdmin","inputs":[{"name":"roleId","type":"uint64","internalType":"uint64"},{"name":"admin","type":"uint64","internalType":"uint64"}],"outputs":[],"stateMutability":"nonpayable"},{"type":"function","name":"setRoleGuardian","inputs":[{"name":"roleId","type":"uint64","internalType":"uint64"},{"name":"guardian","type":"uint64","internalType":"uint64"}],"outputs":[],"stateMutability":"nonpayable"},{"type":"function","name":"setTargetAdminDelay","inputs":[{"name":"target","type":"address","internalType":"address"},{"name":"newDelay","type":"uint32","internalType":"uint32"}],"outputs":[],"stateMutability":"nonpayable"},{"type":"function","name":"setTargetClosed","inputs":[{"name":"target","type":"address","internalType":"address"},{"name":"closed","type":"bool","internalType":"bool"}],"outputs":[],"stateMutability":"nonpayable"},{"type":"function","name":"setTargetFunctionRole","inputs":[{"name":"target","type":"address","internalType":"address"},{"name":"selectors","type":"bytes4[]","internalType":"bytes4[]"},{"name":"roleId","type":"uint64","internalType":"uint64"}],"outputs":[],"stateMutability":"nonpayable"},{"type":"function","name":"updateAuthority","inputs":[{"name":"target","type":"address","internalType":"address"},{"name":"newAuthority","type":"address","internalType":"address"}],"outputs":[],"stateMutability":"nonpayable"},{"type":"event","name":"Initialized","inputs":[{"name":"version","type":"uint64","indexed":false,"internalType":"uint64"}],"anonymous":false},{"type":"event","name":"OperationCanceled","inputs":[{"name":"operationId","type":"bytes32","indexed":true,"internalType":"bytes32"},{"name":"nonce","type":"uint32","indexed":true,"internalType":"uint32"}],"anonymous":false},{"type":"event","name":"OperationExecuted","inputs":[{"name":"operationId","type":"bytes32","indexed":true,"internalType":"bytes32"},{"name":"nonce","type":"uint32","indexed":true,"internalType":"uint32"}],"anonymous":false},{"type":"event","name":"OperationScheduled","inputs":[{"name":"operationId","type":"bytes32","indexed":true,"internalType":"bytes32"},{"name":"nonce","type":"uint32","indexed":true,"internalType":"uint32"},{"name":"schedule","type":"uint48","indexed":false,"internalType":"uint48"},{"name":"caller","type":"address","indexed":false,"internalType":"address"},{"name":"target","type":"address","indexed":false,"internalType":"address"},{"name":"data","type":"bytes","indexed":false,"internalType":"bytes"}],"anonymous":false},{"type":"event","name":"RoleAdminChanged","inputs":[{"name":"roleId","type":"uint64","indexed":true,"internalType":"uint64"},{"name":"admin","type":"uint64","indexed":true,"internalType":"uint64"}],"anonymous":false},{"type":"event","name":"RoleGrantDelayChanged","inputs":[{"name":"roleId","type":"uint64","indexed":true,"internalType":"uint64"},{"name":"delay","type":"uint32","indexed":false,"internalType":"uint32"},{"name":"since","type":"uint48","indexed":false,"internalType":"uint48"}],"anonymous":false},{"type":"event","name":"RoleGranted","inputs":[{"name":"roleId","type":"uint64","indexed":true,"internalType":"uint64"},{"name":"account","type":"address","indexed":true,"internalType":"address"},{"name":"delay","type":"uint32","indexed":false,"internalType":"uint32"},{"name":"since","type":"uint48","indexed":false,"internalType":"uint48"},{"name":"newMember","type":"bool","indexed":false,"internalType":"bool"}],"anonymous":false},{"type":"event","name":"RoleGuardianChanged","inputs":[{"name":"roleId","type":"uint64","indexed":true,"internalType":"uint64"},{"name":"guardian","type":"uint64","indexed":true,"internalType":"uint64"}],"anonymous":false},{"type":"event","name":"RoleLabel","inputs":[{"name":"roleId","type":"uint64","indexed":true,"internalType":"uint64"},{"name":"label","type":"string","indexed":false,"internalType":"string"}],"anonymous":false},{"type":"event","name":"RoleRevoked","inputs":[{"name":"roleId","type":"uint64","indexed":true,"internalType":"uint64"},{"name":"account","type":"address","indexed":true,"internalType":"address"}],"anonymous":false},{"type":"event","name":"TargetAdminDelayUpdated","inputs":[{"name":"target","type":"address","indexed":true,"internalType":"address"},{"name":"delay","type":"uint32","indexed":false,"internalType":"uint32"},{"name":"since","type":"uint48","indexed":false,"internalType":"uint48"}],"anonymous":false},{"type":"event","name":"TargetClosed","inputs":[{"name":"target","type":"address","indexed":true,"internalType":"address"},{"name":"closed","type":"bool","indexed":false,"internalType":"bool"}],"anonymous":false},{"type":"event","name":"TargetFunctionRoleUpdated","inputs":[{"name":"target","type":"address","indexed":true,"internalType":"address"},{"name":"selector","type":"bytes4","indexed":false,"internalType":"bytes4"},{"name":"roleId","type":"uint64","indexed":true,"internalType":"uint64"}],"anonymous":false},{"type":"error","name":"AccessManagerAlreadyScheduled","inputs":[{"name":"operationId","type":"bytes32","internalType":"bytes32"}]},{"type":"error","name":"AccessManagerBadConfirmation","inputs":[]},{"type":"error","name":"AccessManagerExpired","inputs":[{"name":"operationId","type":"bytes32","internalType":"bytes32"}]},{"type":"error","name":"AccessManagerInvalidInitialAdmin","inputs":[{"name":"initialAdmin","type":"address","internalType":"address"}]},{"type":"error","name":"AccessManagerLockedAccount","inputs":[{"name":"account","type":"address","internalType":"address"}]},{"type":"error","name":"AccessManagerLockedRole","inputs":[{"name":"roleId","type":"uint64","internalType":"uint64"}]},{"type":"error","name":"AccessManagerNotReady","inputs":[{"name":"operationId","type":"bytes32","internalType":"bytes32"}]},{"type":"error","name":"AccessManagerNotScheduled","inputs":[{"name":"operationId","type":"bytes32","internalType":"bytes32"}]},{"type":"error","name":"AccessManagerUnauthorizedAccount","inputs":[{"name":"msgsender","type":"address","internalType":"address"},{"name":"roleId","type":"uint64","internalType":"uint64"}]},{"type":"error","name":"AccessManagerUnauthorizedCall","inputs":[{"name":"caller","type":"address","internalType":"address"},{"name":"target","type":"address","internalType":"address"},{"name":"selector","type":"bytes4","internalType":"bytes4"}]},{"type":"error","name":"AccessManagerUnauthorizedCancel","inputs":[{"name":"msgsender","type":"address","internalType":"address"},{"name":"caller","type":"address","internalType":"address"},{"name":"target","type":"address","internalType":"address"},{"name":"selector","type":"bytes4","internalType":"bytes4"}]},{"type":"error","name":"AccessManagerUnauthorizedConsume","inputs":[{"name":"target","type":"address","internalType":"address"}]},{"type":"error","name":"AddressEmptyCode","inputs":[{"name":"target","type":"address","internalType":"address"}]},{"type":"error","name":"AddressInsufficientBalance","inputs":[{"name":"account","type":"address","internalType":"address"}]},{"type":"error","name":"FailedInnerCall","inputs":[]},{"type":"error","name":"InvalidInitialization","inputs":[]},{"type":"error","name":"NotInitializing","inputs":[]},{"type":"error","name":"SafeCastOverflowedUintDowncast","inputs":[{"name":"bits","type":"uint8","internalType":"uint8"},{"name":"value","type":"uint256","internalType":"uint256"}]}],"bytecode":{"object":"0x608060405234801561001057600080fd5b50612b06806100206000396000f3fe6080604052600436106101e35760003560e01c80636d5115bd11610102578063b700961311610095578063d22b598911610064578063d22b598914610603578063d6bb62c614610623578063f801a69814610643578063fe0776f51461067d57600080fd5b8063b700961314610571578063b7d2b162146105ad578063cc1b6c81146105cd578063d1f856ee146105e357600080fd5b8063a166aa89116100d1578063a166aa89146104c6578063a64d95ce146104f6578063abd9bd2a14610516578063ac9650d81461054457600080fd5b80636d5115bd1461045157806375b238fc14610471578063853551b81461048657806394c7d7ee146104a657600080fd5b806330cae1871161017a5780634665096d116101495780634665096d146103db5780634c1da1e2146103f15780635296295214610411578063530dd4561461043157600080fd5b806330cae187146103495780633adc277a146103695780633ca7c02a146103a05780634136a33c146103bb57600080fd5b806318ff183c116101b657806318ff183c1461029c5780631cff79cd146102bc57806325c471a0146102cf5780633078f114146102ef57600080fd5b806308d6122d146101e85780630b0a93ba1461020a57806312be872714610247578063167bd3951461027c575b600080fd5b3480156101f457600080fd5b50610208610203366004612376565b61069d565b005b34801561021657600080fd5b5061022a6102253660046123dc565b6106f0565b6040516001600160401b0390911681526020015b60405180910390f35b34801561025357600080fd5b506102676102623660046123dc565b610729565b60405163ffffffff909116815260200161023e565b34801561028857600080fd5b506102086102973660046123f7565b610775565b3480156102a857600080fd5b506102086102b7366004612435565b61078b565b6102676102ca3660046124a4565b6107f2565b3480156102db57600080fd5b506102086102ea36600461250c565b610938565b3480156102fb57600080fd5b5061030f61030a366004612551565b61095a565b60405161023e949392919065ffffffffffff948516815263ffffffff93841660208201529190921660408201529116606082015260800190565b34801561035557600080fd5b5061020861036436600461256d565b6109d1565b34801561037557600080fd5b506103896103843660046125a0565b6109e3565b60405165ffffffffffff909116815260200161023e565b3480156103ac57600080fd5b5061022a6001600160401b0381565b3480156103c757600080fd5b506102676103d63660046125a0565b610a28565b3480156103e757600080fd5b5062093a80610267565b3480156103fd57600080fd5b5061026761040c3660046125b9565b610a55565b34801561041d57600080fd5b5061020861042c36600461256d565b610a91565b34801561043d57600080fd5b5061022a61044c3660046123dc565b610aa3565b34801561045d57600080fd5b5061022a61046c3660046125ec565b610ad5565b34801561047d57600080fd5b5061022a600081565b34801561049257600080fd5b506102086104a136600461261a565b610b1e565b3480156104b257600080fd5b506102086104c13660046124a4565b610bb5565b3480156104d257600080fd5b506104e66104e13660046125b9565b610c61565b604051901515815260200161023e565b34801561050257600080fd5b50610208610511366004612638565b610c9a565b34801561052257600080fd5b50610536610531366004612662565b610cac565b60405190815260200161023e565b34801561055057600080fd5b5061056461055f3660046126c6565b610ce5565b60405161023e919061272b565b34801561057d57600080fd5b5061059161058c3660046127a5565b610dcc565b60408051921515835263ffffffff90911660208301520161023e565b3480156105b957600080fd5b506102086105c8366004612551565b610e53565b3480156105d957600080fd5b5062069780610267565b3480156105ef57600080fd5b506105916105fe366004612551565b610e6a565b34801561060f57600080fd5b5061020861061e3660046127f0565b610ee7565b34801561062f57600080fd5b5061026761063e366004612662565b610ef9565b34801561064f57600080fd5b5061066361065e36600461280e565b611064565b6040805192835263ffffffff90911660208301520161023e565b34801561068957600080fd5b50610208610698366004612551565b61120f565b6106a5611238565b60005b828110156106e9576106e1858585848181106106c6576106c6612880565b90506020020160208101906106db9190612896565b846112b3565b6001016106a8565b5050505050565b6000806106fb611341565b6001600160401b0393841660009081526001918201602052604090200154600160401b900490921692915050565b600080610734611341565b6001600160401b038416600090815260018281016020526040909120015490915061076e90600160801b90046001600160701b0316611365565b9392505050565b61077d611238565b6107878282611384565b5050565b610793611238565b604051637a9e5e4b60e01b81526001600160a01b038281166004830152831690637a9e5e4b90602401600060405180830381600087803b1580156107d657600080fd5b505af11580156107ea573d6000803e3d6000fd5b505050505050565b6000806107fd611341565b90503360008061080f8389898961142a565b9150915081158015610825575063ffffffff8116155b15610878578288610836898961147d565b6040516381c6f24b60e01b81526001600160a01b0393841660048201529290911660248301526001600160e01b03191660448201526064015b60405180910390fd5b6000610886848a8a8a610cac565b9050600063ffffffff83161515806108ad57506108a2826109e3565b65ffffffffffff1615155b156108be576108bb82611495565b90505b60038601546108d68b6108d18c8c61147d565b6115a9565b87600301819055506109208b8b8b8080601f0160208091040260200160405190810160405280939291908181526020018383808284376000920191909152503492506115eb915050565b50600390960195909555509293505050509392505050565b610940611238565b610954838361094e86610729565b84611688565b50505050565b600080600080600061096a611341565b6001600160401b038816600090815260018201602090815260408083206001600160a01b038b1684529091529020805465ffffffffffff81169750919250906109c290600160301b90046001600160701b03166118e7565b979a9199509750945050505050565b6109d9611238565b610787828261190a565b6000806109ee611341565b600084815260028201602052604090205490915065ffffffffffff16610a13816119bc565b610a1d5780610a20565b60005b949350505050565b600080610a33611341565b600093845260020160205250506040902054600160301b900463ffffffff1690565b600080610a60611341565b6001600160a01b03841660009081526020829052604090206001015490915061076e906001600160701b0316611365565b610a99611238565b61078782826119eb565b600080610aae611341565b6001600160401b039384166000908152600191820160205260409020015490921692915050565b600080610ae0611341565b6001600160a01b0385166000908152602091825260408082206001600160e01b03198716835290925220546001600160401b03169150505b92915050565b610b26611238565b6001600160401b0383161580610b4457506001600160401b03838116145b15610b6d5760405163061c6a4360e21b81526001600160401b038416600482015260240161086f565b826001600160401b03167f1256f5b5ecb89caec12db449738f2fbcd1ba5806cf38f35413f4e5c15bf6a4508383604051610ba89291906128dc565b60405180910390a2505050565b60408051638fb3603760e01b80825291513392918391638fb36037916004808201926020929091908290030181865afa158015610bf6573d6000803e3d6000fd5b505050506040513d601f19601f82011682018060405250810190610c1a91906128f0565b6001600160e01b03191614610c4d57604051630641fee960e31b81526001600160a01b038216600482015260240161086f565b6106e9610c5c85838686610cac565b611495565b600080610c6c611341565b6001600160a01b0390931660009081526020939093525050604090206001015460ff600160701b9091041690565b610ca2611238565b6107878282611aab565b600084848484604051602001610cc5949392919061290d565b604051602081830303815290604052805190602001209050949350505050565b604080516000815260208101909152606090826001600160401b03811115610d0f57610d0f61297a565b604051908082528060200260200182016040528015610d4257816020015b6060815260200190600190039081610d2d5790505b50915060005b83811015610dc457610d9f30868684818110610d6657610d66612880565b9050602002810190610d789190612990565b85604051602001610d8b939291906129d6565b604051602081830303815290604052611bd8565b838281518110610db157610db1612880565b6020908102919091010152600101610d48565b505092915050565b600080610dd884610c61565b15610de857506000905080610e4b565b306001600160a01b03861603610e0d57610e028484611c4e565b600091509150610e4b565b6000610e198585610ad5565b9050600080610e288389610e6a565b9150915081610e3957600080610e43565b63ffffffff811615815b945094505050505b935093915050565b610e5b611238565b610e658282611c73565b505050565b60008067fffffffffffffffe196001600160401b03851601610e925750600190506000610ee0565b600080610e9f868661095a565b5050915091508165ffffffffffff16600014158015610ed55750610ec1611d72565b65ffffffffffff168265ffffffffffff1611155b93509150610ee09050565b9250929050565b610eef611238565b6107878282611d82565b600080610f04611341565b9050336000610f13868661147d565b90506000610f2389898989610cac565b600081815260028601602052604081205491925065ffffffffffff9091169003610f635760405163060a299b60e41b81526004810182905260240161086f565b826001600160a01b0316896001600160a01b031614610fff576000610f89600085610e6a565b5090506000610fa4610f9e6102258c87610ad5565b86610e6a565b50905081158015610fb3575080155b15610ffc57604051630ff89d4760e21b81526001600160a01b038087166004830152808d1660248301528b1660448201526001600160e01b03198516606482015260840161086f565b50505b6000818152600285016020526040808220805465ffffffffffff1916908190559051600160301b90910463ffffffff1691829184917fbd9ac67a6e2f6463b80927326310338bcbb4bdb7936ce1365ea3e01067e7b9f791a39998505050505050505050565b6000806000611071611341565b9050336000611082828a8a8a61142a565b91505060008163ffffffff16611096611d72565b6110a091906129fd565b905063ffffffff821615806110d7575060008765ffffffffffff161180156110d757508065ffffffffffff168765ffffffffffff16105b156110e857828a6108368b8b61147d565b6111028765ffffffffffff168265ffffffffffff16611e4e565b9650611110838b8b8b610cac565b955061111b86611e64565b83600201600087815260200190815260200160002060000160069054906101000a900463ffffffff1660010194508684600201600088815260200190815260200160002060000160006101000a81548165ffffffffffff021916908365ffffffffffff1602179055508484600201600088815260200190815260200160002060000160066101000a81548163ffffffff021916908363ffffffff1602179055508463ffffffff16867f82a2da5dee54ea8021c6545b4444620291e07ee83be6dd57edb175062715f3b489868e8e8e6040516111fa959493929190612a23565b60405180910390a35050505094509492505050565b6001600160a01b0381163314610e5b57604051635f159e6360e01b815260040160405180910390fd5b33600080611247838236611ec0565b9150915081610e65578063ffffffff166000036112a357600061126a8136611f78565b5060405163f07e038f60e01b81526001600160a01b03871660048201526001600160401b0382166024820152909250604401905061086f565b610954610c5c8430600036610cac565b60006112bd611341565b6001600160a01b0385166000818152602083815260408083206001600160e01b0319891680855290835292819020805467ffffffffffffffff19166001600160401b03891690811790915590519283529394507f9ea6790c7dadfd01c9f8b9762b3682607af2c7e79e05a9f9fdf5580dde949151910160405180910390a350505050565b7f40c6c8c28789853c7efd823ab20824bbd71718a8a5915e855f6f288c9a26ad0090565b60008061137a836001600160701b03166118e7565b5090949350505050565b600061138e611341565b9050306001600160a01b038416036113c457604051630b40d17960e31b81526001600160a01b038416600482015260240161086f565b6001600160a01b038316600081815260208390526040908190206001018054851515600160701b0260ff60701b19909116179055517f90d4e7bb7e5d933792b3562e1741306f8be94837e1348dacef9b6f1df56eb13890610ba890851515815260200190565b600080306001600160a01b0386160361145157611448868585611ec0565b91509150611474565b6004831061146d57611468868661058c878761147d565b611448565b5060009050805b94509492505050565b600061148c6004828486612950565b61076e91612a69565b6000806114a0611341565b600084815260028201602052604081205491925065ffffffffffff821691600160301b900463ffffffff16908290036114ef5760405163060a299b60e41b81526004810186905260240161086f565b6114f7611d72565b65ffffffffffff168265ffffffffffff16111561152a57604051630c65b5bd60e11b81526004810186905260240161086f565b611533826119bc565b1561155457604051631e2975b960e21b81526004810186905260240161086f565b6000858152600284016020526040808220805465ffffffffffff191690555163ffffffff83169187917f76a2a46953689d4861a5d3f6ed883ad7e6af674a21f8e162707159fc9dde614d9190a3949350505050565b604080516001600160a01b03939093166020808501919091526001600160e01b0319929092168382015280518084038201815260609093019052815191012090565b6060814710156116105760405163cd78605960e01b815230600482015260240161086f565b600080856001600160a01b0316848660405161162c9190612a97565b60006040518083038185875af1925050503d8060008114611669576040519150601f19603f3d011682016040523d82523d6000602084013e61166e565b606091505b509150915061167e868383612144565b9695505050505050565b600080611693611341565b905067fffffffffffffffe196001600160401b038716016116d25760405163061c6a4360e21b81526001600160401b038716600482015260240161086f565b6001600160401b038616600090815260018201602090815260408083206001600160a01b038916845290915281205465ffffffffffff16159081156117c8578563ffffffff16611720611d72565b61172a91906129fd565b905060405180604001604052808265ffffffffffff1681526020016117588763ffffffff1663ffffffff1690565b6001600160701b039081169091526001600160401b038a16600090815260018601602090815260408083206001600160a01b038d1684528252909120835181549490920151909216600160301b026001600160a01b031990931665ffffffffffff90911617919091179055611878565b6001600160401b038816600090815260018401602090815260408083206001600160a01b038b16845290915281205461181491600160301b9091046001600160701b03169087906121a0565b6001600160401b038a16600090815260018601602090815260408083206001600160a01b038d168452909152902080546001600160701b03909316600160301b0273ffffffffffffffffffffffffffff000000000000199093169290921790915590505b6040805163ffffffff8716815265ffffffffffff831660208201528315158183015290516001600160a01b038916916001600160401b038b16917ff98448b987f1428e0e230e1f3c6e2ce15b5693eaf31827fbd0b1ec4b424ae7cf9181900360600190a3509695505050505050565b60008060006118fd846118f8611d72565b61224a565b9250925092509193909250565b6000611914611341565b90506001600160401b038316158061193457506001600160401b03838116145b1561195d5760405163061c6a4360e21b81526001600160401b038416600482015260240161086f565b6001600160401b03838116600081815260018481016020526040808320909101805467ffffffffffffffff19169487169485179055517f1fd6dd7631312dfac2205b52913f99de03b4d7e381d5d27d3dbfe0713e6e63409190a3505050565b60006119c6611d72565b65ffffffffffff166119db62093a80846129fd565b65ffffffffffff16111592915050565b60006119f5611341565b90506001600160401b0383161580611a1557506001600160401b03838116145b15611a3e5760405163061c6a4360e21b81526001600160401b038416600482015260240161086f565b6001600160401b0383811660008181526001848101602052604080832090910180546fffffffffffffffff00000000000000001916600160401b958816958602179055517f7a8059630b897b5de4c08ade69f8b90c3ead1f8596d62d10b6c4d14a0afb4ae29190a3505050565b6000611ab5611341565b905067fffffffffffffffe196001600160401b03841601611af45760405163061c6a4360e21b81526001600160401b038416600482015260240161086f565b6001600160401b03831660009081526001828101602052604082200154611b2f90600160801b90046001600160701b031684620697806121a0565b6001600160401b038616600081815260018087016020526040918290200180546001600160701b03909516600160801b026dffffffffffffffffffffffffffff60801b199095169490941790935591519092507ffeb69018ee8b8fd50ea86348f1267d07673379f72cffdeccec63853ee8ce8b4890611bca908690859063ffffffff92909216825265ffffffffffff16602082015260400190565b60405180910390a250505050565b6060600080846001600160a01b031684604051611bf59190612a97565b600060405180830381855af49150503d8060008114611c30576040519150601f19603f3d011682016040523d82523d6000602084013e611c35565b606091505b5091509150611c45858383612144565b95945050505050565b600080611c59611341565b9050611c6584846115a9565b600390910154149392505050565b600080611c7e611341565b905067fffffffffffffffe196001600160401b03851601611cbd5760405163061c6a4360e21b81526001600160401b038516600482015260240161086f565b6001600160401b038416600090815260018201602090815260408083206001600160a01b038716845290915281205465ffffffffffff169003611d04576000915050610b18565b6001600160401b038416600081815260018301602090815260408083206001600160a01b038816808552925280832080546001600160a01b0319169055519092917ff229baa593af28c41b1d16b748cd7688f0c83aaf92d4be41c44005defe84c16691a35060019392505050565b6000611d7d4261229e565b905090565b6000611d8c611341565b90506000611dc483620697806001600160a01b0387166000908152602086905260409020600101546001600160701b031691906121a0565b6001600160a01b0386166000818152602086815260409182902060010180546dffffffffffffffffffffffffffff19166001600160701b039690961695909517909455805163ffffffff8816815265ffffffffffff841694810194909452919350917fa56b76017453f399ec2327ba00375dbfb1fd070ff854341ad6191e6a2e2de19c9101611bca565b6000818311611e5d578161076e565b5090919050565b6000611e6e611341565b600083815260028201602052604090205490915065ffffffffffff168015801590611e9f5750611e9d816119bc565b155b15610e655760405163813e945960e01b81526004810184905260240161086f565b6000806004831015611ed757506000905080610e4b565b306001600160a01b03861603611efa57610e0230611ef5868661147d565b611c4e565b6000806000611f098787611f78565b92509250925082611f235760008094509450505050610e4b565b600080611f30848b610e6a565b9150915081611f4a57600080965096505050505050610e4b565b611f608363ffffffff168263ffffffff16611e4e565b63ffffffff8116159b909a5098505050505050505050565b600080806004841015611f935750600091508190508061213d565b6000611f9f868661147d565b90506001600160e01b031981166310a6aa3760e31b1480611fd057506001600160e01b031981166330cae18760e01b145b80611feb57506001600160e01b0319811663294b14a960e11b145b8061200657506001600160e01b03198116635326cae760e11b145b8061202157506001600160e01b0319811663d22b598960e01b145b156120375760016000809350935093505061213d565b6001600160e01b0319811663063fc60f60e21b148061206657506001600160e01b0319811663167bd39560e01b145b8061208157506001600160e01b031981166308d6122d60e01b145b156120c357600061209660246004888a612950565b8101906120a391906125b9565b905060006120b082610a55565b6001965060009550935061213d92505050565b6001600160e01b0319811663012e238d60e51b14806120f257506001600160e01b03198116635be958b160e11b145b1561213057600061210760246004888a612950565b81019061211491906123dc565b9050600161212182610aa3565b6000945094509450505061213d565b6000806000935093509350505b9250925092565b60608261215957612154826122d5565b61076e565b815115801561217057506001600160a01b0384163b155b1561219957604051639996b31560e01b81526001600160a01b038516600482015260240161086f565b508061076e565b60008060006121b7866001600160701b0316611365565b905060006121f48563ffffffff168763ffffffff168463ffffffff16116121df5760006121e9565b6121e98885612ab3565b63ffffffff16611e4e565b90508063ffffffff16612205611d72565b61220f91906129fd565b925063ffffffff8616602083901b67ffffffff0000000016604085901b6dffffffffffff000000000000000016171793505050935093915050565b6000808069ffffffffffffffffffff602086901c166001600160701b03861665ffffffffffff604088901c81169087168111156122895782828261228e565b816000805b9550955095505050509250925092565b600065ffffffffffff8211156122d1576040516306dfcc6560e41b8152603060048201526024810183905260440161086f565b5090565b8051156122e55780518082602001fd5b604051630a12f52160e11b815260040160405180910390fd5b50565b6001600160a01b03811681146122fe57600080fd5b60008083601f84011261232857600080fd5b5081356001600160401b0381111561233f57600080fd5b6020830191508360208260051b8501011115610ee057600080fd5b80356001600160401b038116811461237157600080fd5b919050565b6000806000806060858703121561238c57600080fd5b843561239781612301565b935060208501356001600160401b038111156123b257600080fd5b6123be87828801612316565b90945092506123d190506040860161235a565b905092959194509250565b6000602082840312156123ee57600080fd5b61076e8261235a565b6000806040838503121561240a57600080fd5b823561241581612301565b91506020830135801515811461242a57600080fd5b809150509250929050565b6000806040838503121561244857600080fd5b823561245381612301565b9150602083013561242a81612301565b60008083601f84011261247557600080fd5b5081356001600160401b0381111561248c57600080fd5b602083019150836020828501011115610ee057600080fd5b6000806000604084860312156124b957600080fd5b83356124c481612301565b925060208401356001600160401b038111156124df57600080fd5b6124eb86828701612463565b9497909650939450505050565b803563ffffffff8116811461237157600080fd5b60008060006060848603121561252157600080fd5b61252a8461235a565b9250602084013561253a81612301565b9150612548604085016124f8565b90509250925092565b6000806040838503121561256457600080fd5b6124538361235a565b6000806040838503121561258057600080fd5b6125898361235a565b91506125976020840161235a565b90509250929050565b6000602082840312156125b257600080fd5b5035919050565b6000602082840312156125cb57600080fd5b813561076e81612301565b6001600160e01b0319811681146122fe57600080fd5b600080604083850312156125ff57600080fd5b823561260a81612301565b9150602083013561242a816125d6565b60008060006040848603121561262f57600080fd5b6124c48461235a565b6000806040838503121561264b57600080fd5b6126548361235a565b9150612597602084016124f8565b6000806000806060858703121561267857600080fd5b843561268381612301565b9350602085013561269381612301565b925060408501356001600160401b038111156126ae57600080fd5b6126ba87828801612463565b95989497509550505050565b600080602083850312156126d957600080fd5b82356001600160401b038111156126ef57600080fd5b6126fb85828601612316565b90969095509350505050565b60005b8381101561272257818101518382015260200161270a565b50506000910152565b6000602080830181845280855180835260408601915060408160051b870101925083870160005b8281101561279857878503603f1901845281518051808752612779818989018a8501612707565b601f01601f191695909501860194509285019290850190600101612752565b5092979650505050505050565b6000806000606084860312156127ba57600080fd5b83356127c581612301565b925060208401356127d581612301565b915060408401356127e5816125d6565b809150509250925092565b6000806040838503121561280357600080fd5b823561265481612301565b6000806000806060858703121561282457600080fd5b843561282f81612301565b935060208501356001600160401b0381111561284a57600080fd5b61285687828801612463565b909450925050604085013565ffffffffffff8116811461287557600080fd5b939692955090935050565b634e487b7160e01b600052603260045260246000fd5b6000602082840312156128a857600080fd5b813561076e816125d6565b81835281816020850137506000828201602090810191909152601f909101601f19169091010190565b602081526000610a206020830184866128b3565b60006020828403121561290257600080fd5b815161076e816125d6565b6001600160a01b0385811682528416602082015260606040820181905260009061167e90830184866128b3565b634e487b7160e01b600052601160045260246000fd5b6000808585111561296057600080fd5b8386111561296d57600080fd5b5050820193919092039150565b634e487b7160e01b600052604160045260246000fd5b6000808335601e198436030181126129a757600080fd5b8301803591506001600160401b038211156129c157600080fd5b602001915036819003821315610ee057600080fd5b8284823760008382016000815283516129f3818360208801612707565b0195945050505050565b65ffffffffffff818116838216019080821115612a1c57612a1c61293a565b5092915050565b65ffffffffffff861681526001600160a01b03858116602083015284166040820152608060608201819052600090612a5e90830184866128b3565b979650505050505050565b6001600160e01b03198135818116916004851015610dc45760049490940360031b84901b1690921692915050565b60008251612aa9818460208701612707565b9190910192915050565b63ffffffff828116828216039080821115612a1c57612a1c61293a56fea2646970667358221220fd7c856fe9352b5c1bddd5fab5a6f9d0e97802177605b0dc5853a25c36b2f72664736f6c63430008180033","linkReferences":{}},"methodIdentifiers":{"ADMIN_ROLE()":"75b238fc","PUBLIC_ROLE()":"3ca7c02a","canCall(address,address,bytes4)":"b7009613","cancel(address,address,bytes)":"d6bb62c6","consumeScheduledOp(address,bytes)":"94c7d7ee","execute(address,bytes)":"1cff79cd","expiration()":"4665096d","getAccess(uint64,address)":"3078f114","getNonce(bytes32)":"4136a33c","getRoleAdmin(uint64)":"530dd456","getRoleGrantDelay(uint64)":"12be8727","getRoleGuardian(uint64)":"0b0a93ba","getSchedule(bytes32)":"3adc277a","getTargetAdminDelay(address)":"4c1da1e2","getTargetFunctionRole(address,bytes4)":"6d5115bd","grantRole(uint64,address,uint32)":"25c471a0","hasRole(uint64,address)":"d1f856ee","hashOperation(address,address,bytes)":"abd9bd2a","isTargetClosed(address)":"a166aa89","labelRole(uint64,string)":"853551b8","minSetback()":"cc1b6c81","multicall(bytes[])":"ac9650d8","renounceRole(uint64,address)":"fe0776f5","revokeRole(uint64,address)":"b7d2b162","schedule(address,bytes,uint48)":"f801a698","setGrantDelay(uint64,uint32)":"a64d95ce","setRoleAdmin(uint64,uint64)":"30cae187","setRoleGuardian(uint64,uint64)":"52962952","setTargetAdminDelay(address,uint32)":"d22b5989","setTargetClosed(address,bool)":"167bd395","setTargetFunctionRole(address,bytes4[],uint64)":"08d6122d","updateAuthority(address,address)":"18ff183c"},"id":88}